:020000040000FA
:060000000A128A110C280F
:10000800FE00030EF3000A08F4000A128A113B28C6
:100018000A128A110F2883010A128A1113288316DB
:1000280003138801831203138601831603138601C1
:100038000A128A115C200A128A110A128A116B208C
:100048000A128A11AA308312031388008312031339
:1000580088090630F7001330F600AD30F500F50BCF
:100068003328F60B3328F70B33283A282A2883122B
:1000780003138C1E55280230F2004530F100A930D8
:10008800F000F00B4528F10B4528F20B45284C28C9
:100098000A128A1171200A128A1183120313860028
:1000A8008C1274088A00730E8300FE0E7E0E0900FF
:1000B800871707132630831603139800903083128E
:1000C8000313980019308316031399000800C030F1
:1000D8008B00831603138C160800831203138C1EDF
:0600E80008001A080800E0
:02400E00713F00
:00000001FF
