:020000040000FA
:060000000A128A11FC2F18
:100F6E008714080087100800FF30831603138600CD
:100F7E0087018801831203138701880183120313EB
:100F8E00060888000A128A11B7270A128A11F00180
:100F9E00F10100000130F0070318F10A0030F107EB
:100FAE007108803AFF0080307F02031DE02F64300D
:100FBE007002031CD02F0A128A11B9270A128A1145
:100FCE00F201F30100000130F2070318F30A0030BA
:100FDE00F3077308803AFF0080307F02031DF92F5C
:100FEE00643072020318C52FE92F83010A128A1189
:020FFE00BB2F07
:00000001FF
