:020000040000FA
:060000000A128A11FC2F18
:100F620005080800831203138C1E08001A080800E3
:100F7200FF30831603138600880183120313860150
:100F820088010800F00083160313981CC42F700810
:100F9200831203139900080087170713263083165C
:100FA20003139800903083120313980019308316AC
:100FB2000313990008000A128A11CD270A128A1116
:100FC2000A128A11B9270A128A1183120313060818
:100FD2000A128A11C3270A128A111030F100F10B8A
:100FE200F02F00000A128A11B3270A128A11831203
:0E0FF20003138800E62F83010A128A11DC2FF8
:02400E00713F00
:00000001FF
