:020000040000FA
:060000000A128A11FC2F18
:100F7C00F00083160313981CBF2F70088312031301
:100F8C00990008008717071326308316031398005F
:100F9C0090308312031398001930831603139900B1
:100FAC0008000A128A11C8270A128A11FF30831608
:100FBC0003138600071483120313071CF92F06086A
:100FCC000A128A11BE270A128A110630F300133056
:100FDC00F200AD30F100F10BF12FF20BF12FF30B0E
:100FEC00F12FF82FE12F0A128A11002883010A121F
:040FFC008A11D72F50
:02400E00713F00
:00000001FF
