:020000040000FA
:060000000A128A11FC2F18
:100F520005080800831203138C1E08001A080800F3
:100F6200FF30831603138600880183120313860160
:100F720088010800F00083160313981CBC2F700828
:100F8200831203139900080087170713263083166C
:100F920003139800903083120313980019308316BC
:100FA2000313990008000A128A11C5270A128A112E
:100FB2000A128A11B1270A128A1183120313060830
:100FC2000A128A11BB270A128A110B30F30026304B
:100FD200F2005D30F100F10BEC2FF20BEC2FF30B72
:100FE200EC2FF32F0A128A11AB270A128A118312ED
:0E0FF20003138800DE2F83010A128A11D42F08
:02400E00713F00
:00000001FF
